{
  "_format": "hh-sol-artifact-1",
  "contractName": "RealEstatePayment",
  "sourceName": "contracts/RealEstatePayment.sol",
  "abi": [
    {
      "inputs": [
        {
          "internalType": "uint256",
          "name": "_propertyPrice",
          "type": "uint256"
        }
      ],
      "stateMutability": "nonpayable",
      "type": "constructor"
    },
    {
      "anonymous": false,
      "inputs": [
        {
          "indexed": true,
          "internalType": "address",
          "name": "buyer",
          "type": "address"
        },
        {
          "indexed": false,
          "internalType": "uint256",
          "name": "amount",
          "type": "uint256"
        }
      ],
      "name": "PropertyPurchased",
      "type": "event"
    },
    {
      "inputs": [],
      "name": "builder",
      "outputs": [
        {
          "internalType": "address",
          "name": "",
          "type": "address"
        }
      ],
      "stateMutability": "view",
      "type": "function"
    },
    {
      "inputs": [],
      "name": "buyProperty",
      "outputs": [],
      "stateMutability": "payable",
      "type": "function"
    },
    {
      "inputs": [],
      "name": "isSold",
      "outputs": [
        {
          "internalType": "bool",
          "name": "",
          "type": "bool"
        }
      ],
      "stateMutability": "view",
      "type": "function"
    },
    {
      "inputs": [],
      "name": "propertyPrice",
      "outputs": [
        {
          "internalType": "uint256",
          "name": "",
          "type": "uint256"
        }
      ],
      "stateMutability": "view",
      "type": "function"
    }
  ],
  "bytecode": "0x608060405234801561001057600080fd5b50604051610568380380610568833981810160405281019061003291906100d5565b336000806101000a81548173ffffffffffffffffffffffffffffffffffffffff021916908373ffffffffffffffffffffffffffffffffffffffff160217905550806001819055506000600260006101000a81548160ff02191690831515021790555050610102565b600080fd5b6000819050919050565b6100b28161009f565b81146100bd57600080fd5b50565b6000815190506100cf816100a9565b92915050565b6000602082840312156100eb576100ea61009a565b5b60006100f9848285016100c0565b91505092915050565b610457806101116000396000f3fe60806040526004361061003f5760003560e01c80630ec3ce5914610044578063451a308f1461006f578063d7e84fbf14610079578063e852e741146100a4575b600080fd5b34801561005057600080fd5b506100596100cf565b604051610066919061028b565b60405180910390f35b6100776100d5565b005b34801561008557600080fd5b5061008e61023b565b60405161009b91906102e7565b60405180910390f35b3480156100b057600080fd5b506100b961025f565b6040516100c6919061031d565b60405180910390f35b60015481565b600260009054906101000a900460ff1615610125576040517f08c379a000000000000000000000000000000000000000000000000000000000815260040161011c90610395565b60405180910390fd5b6001543414610169576040517f08c379a000000000000000000000000000000000000000000000000000000000815260040161016090610401565b60405180910390fd5b60008054906101000a900473ffffffffffffffffffffffffffffffffffffffff1673ffffffffffffffffffffffffffffffffffffffff166108fc349081150290604051600060405180830381858888f193505050501580156101cf573d6000803e3d6000fd5b506001600260006101000a81548160ff0219169083151502179055503373ffffffffffffffffffffffffffffffffffffffff167f3c0cade9d270c0005f089d49842bd35076264614be1ca87be18f996825d9e07c34604051610231919061028b565b60405180910390a2565b60008054906101000a900473ffffffffffffffffffffffffffffffffffffffff1681565b600260009054906101000a900460ff1681565b6000819050919050565b61028581610272565b82525050565b60006020820190506102a0600083018461027c565b92915050565b600073ffffffffffffffffffffffffffffffffffffffff82169050919050565b60006102d1826102a6565b9050919050565b6102e1816102c6565b82525050565b60006020820190506102fc60008301846102d8565b92915050565b60008115159050919050565b61031781610302565b82525050565b6000602082019050610332600083018461030e565b92915050565b600082825260208201905092915050565b7f50726f706572747920616c726561647920736f6c640000000000000000000000600082015250565b600061037f601583610338565b915061038a82610349565b602082019050919050565b600060208201905081810360008301526103ae81610372565b9050919050565b7f53656e642065786163742070726f706572747920707269636500000000000000600082015250565b60006103eb601983610338565b91506103f6826103b5565b602082019050919050565b6000602082019050818103600083015261041a816103de565b905091905056fea264697066735822122044ed1c8b17b90c8d7ad8fbea75a5f4f9a9ba744bfdf1e60a17dea4014814599664736f6c63430008120033",
  "linkReferences": {},
  "deployedLinkReferences": {}
}