{
  "_format": "hh-sol-artifact-1",
  "contractName": "RealEstateNFT",
  "sourceName": "contracts/RealEstateNFT.sol",
  "abi": [
    {
      "inputs": [],
      "stateMutability": "nonpayable",
      "type": "constructor"
    },
    {
      "inputs": [
        {
          "internalType": "address",
          "name": "sender",
          "type": "address"
        },
        {
          "internalType": "uint256",
          "name": "tokenId",
          "type": "uint256"
        },
        {
          "internalType": "address",
          "name": "owner",
          "type": "address"
        }
      ],
      "name": "ERC721IncorrectOwner",
      "type": "error"
    },
    {
      "inputs": [
        {
          "internalType": "address",
          "name": "operator",
          "type": "address"
        },
        {
          "internalType": "uint256",
          "name": "tokenId",
          "type": "uint256"
        }
      ],
      "name": "ERC721InsufficientApproval",
      "type": "error"
    },
    {
      "inputs": [
        {
          "internalType": "address",
          "name": "approver",
          "type": "address"
        }
      ],
      "name": "ERC721InvalidApprover",
      "type": "error"
    },
    {
      "inputs": [
        {
          "internalType": "address",
          "name": "operator",
          "type": "address"
        }
      ],
      "name": "ERC721InvalidOperator",
      "type": "error"
    },
    {
      "inputs": [
        {
          "internalType": "address",
          "name": "owner",
          "type": "address"
        }
      ],
      "name": "ERC721InvalidOwner",
      "type": "error"
    },
    {
      "inputs": [
        {
          "internalType": "address",
          "name": "receiver",
          "type": "address"
        }
      ],
      "name": "ERC721InvalidReceiver",
      "type": "error"
    },
    {
      "inputs": [
        {
          "internalType": "address",
          "name": "sender",
          "type": "address"
        }
      ],
      "name": "ERC721InvalidSender",
      "type": "error"
    },
    {
      "inputs": [
        {
          "internalType": "uint256",
          "name": "tokenId",
          "type": "uint256"
        }
      ],
      "name": "ERC721NonexistentToken",
      "type": "error"
    },
    {
      "inputs": [
        {
          "internalType": "address",
          "name": "owner",
          "type": "address"
        }
      ],
      "name": "OwnableInvalidOwner",
      "type": "error"
    },
    {
      "inputs": [
        {
          "internalType": "address",
          "name": "account",
          "type": "address"
        }
      ],
      "name": "OwnableUnauthorizedAccount",
      "type": "error"
    },
    {
      "anonymous": false,
      "inputs": [
        {
          "indexed": true,
          "internalType": "address",
          "name": "owner",
          "type": "address"
        },
        {
          "indexed": true,
          "internalType": "address",
          "name": "approved",
          "type": "address"
        },
        {
          "indexed": true,
          "internalType": "uint256",
          "name": "tokenId",
          "type": "uint256"
        }
      ],
      "name": "Approval",
      "type": "event"
    },
    {
      "anonymous": false,
      "inputs": [
        {
          "indexed": true,
          "internalType": "address",
          "name": "owner",
          "type": "address"
        },
        {
          "indexed": true,
          "internalType": "address",
          "name": "operator",
          "type": "address"
        },
        {
          "indexed": false,
          "internalType": "bool",
          "name": "approved",
          "type": "bool"
        }
      ],
      "name": "ApprovalForAll",
      "type": "event"
    },
    {
      "anonymous": false,
      "inputs": [
        {
          "indexed": false,
          "internalType": "uint256",
          "name": "tokenId",
          "type": "uint256"
        },
        {
          "indexed": false,
          "internalType": "address",
          "name": "recipient",
          "type": "address"
        },
        {
          "indexed": false,
          "internalType": "string",
          "name": "buildingName",
          "type": "string"
        }
      ],
      "name": "BadgeIssued",
      "type": "event"
    },
    {
      "anonymous": false,
      "inputs": [
        {
          "indexed": false,
          "internalType": "uint256",
          "name": "tokenId",
          "type": "uint256"
        },
        {
          "indexed": false,
          "internalType": "string",
          "name": "buildingName",
          "type": "string"
        },
        {
          "indexed": false,
          "internalType": "bool",
          "name": "isVerified",
          "type": "bool"
        }
      ],
      "name": "BuildingVerified",
      "type": "event"
    },
    {
      "anonymous": false,
      "inputs": [
        {
          "indexed": true,
          "internalType": "address",
          "name": "previousOwner",
          "type": "address"
        },
        {
          "indexed": true,
          "internalType": "address",
          "name": "newOwner",
          "type": "address"
        }
      ],
      "name": "OwnershipTransferred",
      "type": "event"
    },
    {
      "anonymous": false,
      "inputs": [
        {
          "indexed": true,
          "internalType": "uint256",
          "name": "tokenId",
          "type": "uint256"
        },
        {
          "indexed": true,
          "internalType": "address",
          "name": "previousOwner",
          "type": "address"
        },
        {
          "indexed": true,
          "internalType": "address",
          "name": "newOwner",
          "type": "address"
        },
        {
          "indexed": false,
          "internalType": "uint256",
          "name": "price",
          "type": "uint256"
        }
      ],
      "name": "PropertyPurchased",
      "type": "event"
    },
    {
      "anonymous": false,
      "inputs": [
        {
          "indexed": true,
          "internalType": "address",
          "name": "from",
          "type": "address"
        },
        {
          "indexed": true,
          "internalType": "address",
          "name": "to",
          "type": "address"
        },
        {
          "indexed": true,
          "internalType": "uint256",
          "name": "tokenId",
          "type": "uint256"
        }
      ],
      "name": "Transfer",
      "type": "event"
    },
    {
      "inputs": [
        {
          "internalType": "address",
          "name": "to",
          "type": "address"
        },
        {
          "internalType": "uint256",
          "name": "tokenId",
          "type": "uint256"
        }
      ],
      "name": "approve",
      "outputs": [],
      "stateMutability": "nonpayable",
      "type": "function"
    },
    {
      "inputs": [
        {
          "internalType": "address",
          "name": "owner",
          "type": "address"
        }
      ],
      "name": "balanceOf",
      "outputs": [
        {
          "internalType": "uint256",
          "name": "",
          "type": "uint256"
        }
      ],
      "stateMutability": "view",
      "type": "function"
    },
    {
      "inputs": [
        {
          "internalType": "uint256",
          "name": "",
          "type": "uint256"
        }
      ],
      "name": "buildingBadges",
      "outputs": [
        {
          "internalType": "string",
          "name": "buildingName",
          "type": "string"
        },
        {
          "internalType": "string",
          "name": "location",
          "type": "string"
        },
        {
          "internalType": "bool",
          "name": "isVerified",
          "type": "bool"
        },
        {
          "internalType": "uint256",
          "name": "verificationDate",
          "type": "uint256"
        },
        {
          "internalType": "string",
          "name": "badgeURI",
          "type": "string"
        }
      ],
      "stateMutability": "view",
      "type": "function"
    },
    {
      "inputs": [
        {
          "internalType": "uint256",
          "name": "tokenId",
          "type": "uint256"
        },
        {
          "internalType": "address payable",
          "name": "currentOwner",
          "type": "address"
        }
      ],
      "name": "buyProperty",
      "outputs": [],
      "stateMutability": "payable",
      "type": "function"
    },
    {
      "inputs": [
        {
          "internalType": "uint256",
          "name": "tokenId",
          "type": "uint256"
        }
      ],
      "name": "exists",
      "outputs": [
        {
          "internalType": "bool",
          "name": "",
          "type": "bool"
        }
      ],
      "stateMutability": "view",
      "type": "function"
    },
    {
      "inputs": [
        {
          "internalType": "uint256",
          "name": "tokenId",
          "type": "uint256"
        }
      ],
      "name": "getApproved",
      "outputs": [
        {
          "internalType": "address",
          "name": "",
          "type": "address"
        }
      ],
      "stateMutability": "view",
      "type": "function"
    },
    {
      "inputs": [
        {
          "internalType": "uint256",
          "name": "tokenId",
          "type": "uint256"
        }
      ],
      "name": "getBuildingBadge",
      "outputs": [
        {
          "internalType": "string",
          "name": "buildingName",
          "type": "string"
        },
        {
          "internalType": "string",
          "name": "location",
          "type": "string"
        },
        {
          "internalType": "bool",
          "name": "verificationStatus",
          "type": "bool"
        },
        {
          "internalType": "uint256",
          "name": "verificationDate",
          "type": "uint256"
        },
        {
          "internalType": "string",
          "name": "badgeURI",
          "type": "string"
        }
      ],
      "stateMutability": "view",
      "type": "function"
    },
    {
      "inputs": [
        {
          "internalType": "address",
          "name": "owner",
          "type": "address"
        },
        {
          "internalType": "address",
          "name": "operator",
          "type": "address"
        }
      ],
      "name": "isApprovedForAll",
      "outputs": [
        {
          "internalType": "bool",
          "name": "",
          "type": "bool"
        }
      ],
      "stateMutability": "view",
      "type": "function"
    },
    {
      "inputs": [
        {
          "internalType": "uint256",
          "name": "tokenId",
          "type": "uint256"
        }
      ],
      "name": "isVerified",
      "outputs": [
        {
          "internalType": "bool",
          "name": "",
          "type": "bool"
        }
      ],
      "stateMutability": "view",
      "type": "function"
    },
    {
      "inputs": [
        {
          "internalType": "address",
          "name": "recipient",
          "type": "address"
        },
        {
          "internalType": "string",
          "name": "buildingName",
          "type": "string"
        },
        {
          "internalType": "string",
          "name": "location",
          "type": "string"
        },
        {
          "internalType": "string",
          "name": "badgeURI",
          "type": "string"
        }
      ],
      "name": "issueBadge",
      "outputs": [
        {
          "internalType": "uint256",
          "name": "",
          "type": "uint256"
        }
      ],
      "stateMutability": "nonpayable",
      "type": "function"
    },
    {
      "inputs": [],
      "name": "name",
      "outputs": [
        {
          "internalType": "string",
          "name": "",
          "type": "string"
        }
      ],
      "stateMutability": "view",
      "type": "function"
    },
    {
      "inputs": [],
      "name": "owner",
      "outputs": [
        {
          "internalType": "address",
          "name": "",
          "type": "address"
        }
      ],
      "stateMutability": "view",
      "type": "function"
    },
    {
      "inputs": [
        {
          "internalType": "uint256",
          "name": "tokenId",
          "type": "uint256"
        }
      ],
      "name": "ownerOf",
      "outputs": [
        {
          "internalType": "address",
          "name": "",
          "type": "address"
        }
      ],
      "stateMutability": "view",
      "type": "function"
    },
    {
      "inputs": [],
      "name": "renounceOwnership",
      "outputs": [],
      "stateMutability": "nonpayable",
      "type": "function"
    },
    {
      "inputs": [
        {
          "internalType": "uint256",
          "name": "tokenId",
          "type": "uint256"
        }
      ],
      "name": "revokeVerification",
      "outputs": [],
      "stateMutability": "nonpayable",
      "type": "function"
    },
    {
      "inputs": [
        {
          "internalType": "address",
          "name": "from",
          "type": "address"
        },
        {
          "internalType": "address",
          "name": "to",
          "type": "address"
        },
        {
          "internalType": "uint256",
          "name": "tokenId",
          "type": "uint256"
        }
      ],
      "name": "safeTransferFrom",
      "outputs": [],
      "stateMutability": "nonpayable",
      "type": "function"
    },
    {
      "inputs": [
        {
          "internalType": "address",
          "name": "from",
          "type": "address"
        },
        {
          "internalType": "address",
          "name": "to",
          "type": "address"
        },
        {
          "internalType": "uint256",
          "name": "tokenId",
          "type": "uint256"
        },
        {
          "internalType": "bytes",
          "name": "data",
          "type": "bytes"
        }
      ],
      "name": "safeTransferFrom",
      "outputs": [],
      "stateMutability": "nonpayable",
      "type": "function"
    },
    {
      "inputs": [
        {
          "internalType": "address",
          "name": "operator",
          "type": "address"
        },
        {
          "internalType": "bool",
          "name": "approved",
          "type": "bool"
        }
      ],
      "name": "setApprovalForAll",
      "outputs": [],
      "stateMutability": "nonpayable",
      "type": "function"
    },
    {
      "inputs": [
        {
          "internalType": "bytes4",
          "name": "interfaceId",
          "type": "bytes4"
        }
      ],
      "name": "supportsInterface",
      "outputs": [
        {
          "internalType": "bool",
          "name": "",
          "type": "bool"
        }
      ],
      "stateMutability": "view",
      "type": "function"
    },
    {
      "inputs": [],
      "name": "symbol",
      "outputs": [
        {
          "internalType": "string",
          "name": "",
          "type": "string"
        }
      ],
      "stateMutability": "view",
      "type": "function"
    },
    {
      "inputs": [
        {
          "internalType": "uint256",
          "name": "tokenId",
          "type": "uint256"
        }
      ],
      "name": "tokenURI",
      "outputs": [
        {
          "internalType": "string",
          "name": "",
          "type": "string"
        }
      ],
      "stateMutability": "view",
      "type": "function"
    },
    {
      "inputs": [
        {
          "internalType": "address",
          "name": "from",
          "type": "address"
        },
        {
          "internalType": "address",
          "name": "to",
          "type": "address"
        },
        {
          "internalType": "uint256",
          "name": "tokenId",
          "type": "uint256"
        }
      ],
      "name": "transferFrom",
      "outputs": [],
      "stateMutability": "nonpayable",
      "type": "function"
    },
    {
      "inputs": [
        {
          "internalType": "address",
          "name": "newOwner",
          "type": "address"
        }
      ],
      "name": "transferOwnership",
      "outputs": [],
      "stateMutability": "nonpayable",
      "type": "function"
    },
    {
      "inputs": [
        {
          "internalType": "uint256",
          "name": "tokenId",
          "type": "uint256"
        }
      ],
      "name": "verifyBuilding",
      "outputs": [],
      "stateMutability": "nonpayable",
      "type": "function"
    }
  ],
  "bytecode": "0x60806040523480156200001157600080fd5b50336040518060400160405280601781526020017f4d65746148697665204275696c64696e672042616467650000000000000000008152506040518060400160405280600381526020016226a42160e91b8152508160009081620000769190620001c0565b506001620000858282620001c0565b5050506001600160a01b038116620000b757604051631e4fbdf760e01b81526000600482015260240160405180910390fd5b620000c281620000c9565b506200028c565b600680546001600160a01b038381166001600160a01b0319831681179093556040519116919082907f8be0079c531659141344cd1fd0a4f28419497f9722a3daafe3b4186f6b6457e090600090a35050565b634e487b7160e01b600052604160045260246000fd5b600181811c908216806200014657607f821691505b6020821081036200016757634e487b7160e01b600052602260045260246000fd5b50919050565b601f821115620001bb57600081815260208120601f850160051c81016020861015620001965750805b601f850160051c820191505b81811015620001b757828155600101620001a2565b5050505b505050565b81516001600160401b03811115620001dc57620001dc6200011b565b620001f481620001ed845462000131565b846200016d565b602080601f8311600181146200022c5760008415620002135750858301515b600019600386901b1c1916600185901b178555620001b7565b600085815260208120601f198616915b828110156200025d578886015182559484019460019091019084016200023c565b50858210156200027c5787850151600019600388901b60f8161c191681555b5050505050600190811b01905550565b611f9e806200029c6000396000f3fe60806040526004361061014b5760003560e01c806370a08231116100b6578063b88d4fde1161006f578063b88d4fde146103bb578063c2901e84146103db578063c87b56dd146103fb578063e985e9c51461041b578063f16d04901461043b578063f2fde38b1461045b57600080fd5b806370a0823114610312578063715018a6146103405780638da5cb5b1461035557806395d89b41146103735780639e92a69414610388578063a22cb4651461039b57600080fd5b806337b6d96b1161010857806337b6d96b1461024157806342842e0e146102615780634f558e7914610281578063586a6f9f146102a15780636352211e146102c157806367868249146102e157600080fd5b806301ffc9a71461015057806306fdde0314610185578063081812fc146101a7578063095ea7b3146101df5780631571f0c61461020157806323b872dd14610221575b600080fd5b34801561015c57600080fd5b5061017061016b366004611864565b61047b565b60405190151581526020015b60405180910390f35b34801561019157600080fd5b5061019a6104cd565b60405161017c91906118d1565b3480156101b357600080fd5b506101c76101c23660046118e4565b61055f565b6040516001600160a01b03909116815260200161017c565b3480156101eb57600080fd5b506101ff6101fa366004611912565b610588565b005b34801561020d57600080fd5b506101ff61021c3660046118e4565b610597565b34801561022d57600080fd5b506101ff61023c36600461193e565b610613565b34801561024d57600080fd5b5061017061025c3660046118e4565b61069e565b34801561026d57600080fd5b506101ff61027c36600461193e565b6106de565b34801561028d57600080fd5b5061017061029c3660046118e4565b6106fe565b3480156102ad57600080fd5b506101ff6102bc3660046118e4565b61071b565b3480156102cd57600080fd5b506101c76102dc3660046118e4565b610790565b3480156102ed57600080fd5b506103016102fc3660046118e4565b61079b565b60405161017c95949392919061197f565b34801561031e57600080fd5b5061033261032d3660046119d2565b6109dd565b60405190815260200161017c565b34801561034c57600080fd5b506101ff610a25565b34801561036157600080fd5b506006546001600160a01b03166101c7565b34801561037f57600080fd5b5061019a610a39565b6101ff6103963660046119ef565b610a48565b3480156103a757600080fd5b506101ff6103b6366004611a1f565b610bb5565b3480156103c757600080fd5b506101ff6103d6366004611ade565b610bc0565b3480156103e757600080fd5b506103326103f6366004611b7e565b610bd8565b34801561040757600080fd5b5061019a6104163660046118e4565b610d00565b34801561042757600080fd5b50610170610436366004611c0d565b610d75565b34801561044757600080fd5b506103016104563660046118e4565b610da3565b34801561046757600080fd5b506101ff6104763660046119d2565b610f71565b60006001600160e01b031982166380ac58cd60e01b14806104ac57506001600160e01b03198216635b5e139f60e01b145b806104c757506301ffc9a760e01b6001600160e01b03198316145b92915050565b6060600080546104dc90611c3b565b80601f016020809104026020016040519081016040528092919081815260200182805461050890611c3b565b80156105555780601f1061052a57610100808354040283529160200191610555565b820191906000526020600020905b81548152906001019060200180831161053857829003601f168201915b5050505050905090565b600061056a82610faf565b506000828152600460205260409020546001600160a01b03166104c7565b610593828233610fe8565b5050565b61059f610ff5565b6105a8816106fe565b6105cd5760405162461bcd60e51b81526004016105c490611c75565b60405180910390fd5b60008181526008602052604080822060028101805460ff191690559051600080516020611f4983398151915292610608928592909190611ca3565b60405180910390a150565b6001600160a01b03821661063d57604051633250574960e11b8152600060048201526024016105c4565b600061064a838333611022565b9050836001600160a01b0316816001600160a01b031614610698576040516364283d7b60e01b81526001600160a01b03808616600483015260248201849052821660448201526064016105c4565b50505050565b60006106a9826106fe565b6106c55760405162461bcd60e51b81526004016105c490611c75565b5060009081526008602052604090206002015460ff1690565b6106f983838360405180602001604052806000815250610bc0565b505050565b6000908152600260205260409020546001600160a01b0316151590565b610723610ff5565b61072c816106fe565b6107485760405162461bcd60e51b81526004016105c490611c75565b6000818152600860205260409081902060028101805460ff191660019081179091554260038301559151600080516020611f4983398151915292610608928592909190611ca3565b60006104c782610faf565b60608060008060606107ac866106fe565b6107c85760405162461bcd60e51b81526004016105c490611c75565b600086815260086020526040808220815160a081019092528054829082906107ef90611c3b565b80601f016020809104026020016040519081016040528092919081815260200182805461081b90611c3b565b80156108685780601f1061083d57610100808354040283529160200191610868565b820191906000526020600020905b81548152906001019060200180831161084b57829003601f168201915b5050505050815260200160018201805461088190611c3b565b80601f01602080910402602001604051908101604052809291908181526020018280546108ad90611c3b565b80156108fa5780601f106108cf576101008083540402835291602001916108fa565b820191906000526020600020905b8154815290600101906020018083116108dd57829003601f168201915b5050509183525050600282015460ff16151560208201526003820154604082015260048201805460609092019161093090611c3b565b80601f016020809104026020016040519081016040528092919081815260200182805461095c90611c3b565b80156109a95780601f1061097e576101008083540402835291602001916109a9565b820191906000526020600020905b81548152906001019060200180831161098c57829003601f168201915b5050509190925250508151602083015160408401516060850151608090950151929c919b5099509297509550909350505050565b60006001600160a01b038216610a09576040516322718ad960e21b8152600060048201526024016105c4565b506001600160a01b031660009081526003602052604090205490565b610a2d610ff5565b610a3760006110ba565b565b6060600180546104dc90611c3b565b610a51826106fe565b610a6d5760405162461bcd60e51b81526004016105c490611c75565b806001600160a01b0316610a8083610790565b6001600160a01b031614610ae05760405162461bcd60e51b815260206004820152602160248201527f496e636f72726563742070726f7065727479206f776e65722070726f766964656044820152601960fa1b60648201526084016105c4565b60003411610b225760405162461bcd60e51b815260206004820152600f60248201526e139bc81c185e5b595b9d081cd95b9d608a1b60448201526064016105c4565b6040516001600160a01b038216903480156108fc02916000818181858888f19350505050158015610b57573d6000803e3d6000fd5b50610b6381338461110c565b336001600160a01b0316816001600160a01b0316837fd78c5d7b2c2d6aec7166c055cf40ad27884c2612c3073c68c2e7ed76ccd979f834604051610ba991815260200190565b60405180910390a45050565b6105933383836111bc565b610bcb848484610613565b610698338585858561125b565b6007805460009182919082610bec83611d3d565b919050559050610bfc8682611386565b6040805160a081018252868152602080820187905260018284015242606083015260808201869052600084815260089091529190912081518190610c409082611daa565b5060208201516001820190610c559082611daa565b50604082015160028201805460ff19169115159190911790556060820151600382015560808201516004820190610c8c9082611daa565b509050507ff9cf250e6bdee04477a4a03a767fdb479180e4c12c19ef561485cb57e2117414818787604051610cc393929190611e6a565b60405180910390a1600080516020611f4983398151915281866001604051610ced93929190611e94565b60405180910390a190505b949350505050565b6060610d0b82610faf565b506000610d2360408051602081019091526000815290565b90506000815111610d435760405180602001604052806000815250610d6e565b80610d4d846113a0565b604051602001610d5e929190611ebf565b6040516020818303038152906040525b9392505050565b6001600160a01b03918216600090815260056020908152604080832093909416825291909152205460ff1690565b600860205260009081526040902080548190610dbe90611c3b565b80601f0160208091040260200160405190810160405280929190818152602001828054610dea90611c3b565b8015610e375780601f10610e0c57610100808354040283529160200191610e37565b820191906000526020600020905b815481529060010190602001808311610e1a57829003601f168201915b505050505090806001018054610e4c90611c3b565b80601f0160208091040260200160405190810160405280929190818152602001828054610e7890611c3b565b8015610ec55780601f10610e9a57610100808354040283529160200191610ec5565b820191906000526020600020905b815481529060010190602001808311610ea857829003601f168201915b5050505060028301546003840154600485018054949560ff9093169491935090610eee90611c3b565b80601f0160208091040260200160405190810160405280929190818152602001828054610f1a90611c3b565b8015610f675780601f10610f3c57610100808354040283529160200191610f67565b820191906000526020600020905b815481529060010190602001808311610f4a57829003601f168201915b5050505050905085565b610f79610ff5565b6001600160a01b038116610fa357604051631e4fbdf760e01b8152600060048201526024016105c4565b610fac816110ba565b50565b6000818152600260205260408120546001600160a01b0316806104c757604051637e27328960e01b8152600481018490526024016105c4565b6106f98383836001611433565b6006546001600160a01b03163314610a375760405163118cdaa760e01b81523360048201526024016105c4565b6000828152600260205260408120546001600160a01b031681611046868686611539565b90506001600160a01b0382161580159061106857506001600160a01b03861615155b156110b15760008581526008602052604080822060028101805460ff191690559051600080516020611f49833981519152926110a8928992909190611ca3565b60405180910390a15b95945050505050565b600680546001600160a01b038381166001600160a01b0319831681179093556040519116919082907f8be0079c531659141344cd1fd0a4f28419497f9722a3daafe3b4186f6b6457e090600090a35050565b6001600160a01b03821661113657604051633250574960e11b8152600060048201526024016105c4565b600061114483836000611022565b90506001600160a01b03811661117057604051637e27328960e01b8152600481018390526024016105c4565b836001600160a01b0316816001600160a01b031614610698576040516364283d7b60e01b81526001600160a01b03808616600483015260248201849052821660448201526064016105c4565b6001600160a01b0382166111ee57604051630b61174360e31b81526001600160a01b03831660048201526024016105c4565b6001600160a01b03838116600081815260056020908152604080832094871680845294825291829020805460ff191686151590811790915591519182527f17307eab39ab6107e8899845ad3d59bd9653f200f220920489ca2b5937696c31910160405180910390a3505050565b6001600160a01b0383163b1561137f57604051630a85bd0160e11b81526001600160a01b0384169063150b7a029061129d908890889087908790600401611eee565b6020604051808303816000875af19250505080156112d8575060408051601f3d908101601f191682019092526112d591810190611f2b565b60015b611341573d808015611306576040519150601f19603f3d011682016040523d82523d6000602084013e61130b565b606091505b50805160000361133957604051633250574960e11b81526001600160a01b03851660048201526024016105c4565b805181602001fd5b6001600160e01b03198116630a85bd0160e11b1461137d57604051633250574960e11b81526001600160a01b03851660048201526024016105c4565b505b5050505050565b610593828260405180602001604052806000815250611632565b606060006113ad8361164a565b600101905060008167ffffffffffffffff8111156113cd576113cd611a52565b6040519080825280601f01601f1916602001820160405280156113f7576020820181803683370190505b5090508181016020015b600019016f181899199a1a9b1b9c1cb0b131b232b360811b600a86061a8153600a850494508461140157509392505050565b808061144757506001600160a01b03821615155b1561150957600061145784610faf565b90506001600160a01b038316158015906114835750826001600160a01b0316816001600160a01b031614155b801561149657506114948184610d75565b155b156114bf5760405163a9fbf51f60e01b81526001600160a01b03841660048201526024016105c4565b81156115075783856001600160a01b0316826001600160a01b03167f8c5be1e5ebec7d5bd14f71427d1e84f3dd0314c0f7b2291e5b200ac8c7c3b92560405160405180910390a45b505b5050600090815260046020526040902080546001600160a01b0319166001600160a01b0392909216919091179055565b6000828152600260205260408120546001600160a01b039081169083161561156657611566818486611722565b6001600160a01b038116156115a457611583600085600080611433565b6001600160a01b038116600090815260036020526040902080546000190190555b6001600160a01b038516156115d3576001600160a01b0385166000908152600360205260409020805460010190555b60008481526002602052604080822080546001600160a01b0319166001600160a01b0389811691821790925591518793918516917fddf252ad1be2c89b69c2b068fc378daa952ba7f163c4a11628f55a4df523b3ef91a4949350505050565b61163c8383611786565b6106f933600085858561125b565b60008072184f03e93ff9f4daa797ed6e38ed64bf6a1f0160401b83106116895772184f03e93ff9f4daa797ed6e38ed64bf6a1f0160401b830492506040015b6d04ee2d6d415b85acef810000000083106116b5576d04ee2d6d415b85acef8100000000830492506020015b662386f26fc1000083106116d357662386f26fc10000830492506010015b6305f5e10083106116eb576305f5e100830492506008015b61271083106116ff57612710830492506004015b60648310611711576064830492506002015b600a83106104c75760010192915050565b61172d8383836117eb565b6106f9576001600160a01b03831661175b57604051637e27328960e01b8152600481018290526024016105c4565b60405163177e802f60e01b81526001600160a01b0383166004820152602481018290526044016105c4565b6001600160a01b0382166117b057604051633250574960e11b8152600060048201526024016105c4565b60006117be83836000611022565b90506001600160a01b038116156106f9576040516339e3563760e11b8152600060048201526024016105c4565b60006001600160a01b03831615801590610cf85750826001600160a01b0316846001600160a01b0316148061182557506118258484610d75565b80610cf85750506000908152600460205260409020546001600160a01b03908116911614919050565b6001600160e01b031981168114610fac57600080fd5b60006020828403121561187657600080fd5b8135610d6e8161184e565b60005b8381101561189c578181015183820152602001611884565b50506000910152565b600081518084526118bd816020860160208601611881565b601f01601f19169290920160200192915050565b602081526000610d6e60208301846118a5565b6000602082840312156118f657600080fd5b5035919050565b6001600160a01b0381168114610fac57600080fd5b6000806040838503121561192557600080fd5b8235611930816118fd565b946020939093013593505050565b60008060006060848603121561195357600080fd5b833561195e816118fd565b9250602084013561196e816118fd565b929592945050506040919091013590565b60a08152600061199260a08301886118a5565b82810360208401526119a481886118a5565b9050851515604084015284606084015282810360808401526119c681856118a5565b98975050505050505050565b6000602082840312156119e457600080fd5b8135610d6e816118fd565b60008060408385031215611a0257600080fd5b823591506020830135611a14816118fd565b809150509250929050565b60008060408385031215611a3257600080fd5b8235611a3d816118fd565b915060208301358015158114611a1457600080fd5b634e487b7160e01b600052604160045260246000fd5b600067ffffffffffffffff80841115611a8357611a83611a52565b604051601f8501601f19908116603f01168101908282118183101715611aab57611aab611a52565b81604052809350858152868686011115611ac457600080fd5b858560208301376000602087830101525050509392505050565b60008060008060808587031215611af457600080fd5b8435611aff816118fd565b93506020850135611b0f816118fd565b925060408501359150606085013567ffffffffffffffff811115611b3257600080fd5b8501601f81018713611b4357600080fd5b611b5287823560208401611a68565b91505092959194509250565b600082601f830112611b6f57600080fd5b610d6e83833560208501611a68565b60008060008060808587031215611b9457600080fd5b8435611b9f816118fd565b9350602085013567ffffffffffffffff80821115611bbc57600080fd5b611bc888838901611b5e565b94506040870135915080821115611bde57600080fd5b611bea88838901611b5e565b93506060870135915080821115611c0057600080fd5b50611b5287828801611b5e565b60008060408385031215611c2057600080fd5b8235611c2b816118fd565b91506020830135611a14816118fd565b600181811c90821680611c4f57607f821691505b602082108103611c6f57634e487b7160e01b600052602260045260246000fd5b50919050565b60208082526014908201527310985919d948191bd95cc81b9bdd08195e1a5cdd60621b604082015260600190565b8381526000602060608184015260008554611cbd81611c3b565b8060608701526080600180841660008114611cdf5760018114611cf957611d27565b60ff1985168984015283151560051b890183019550611d27565b8a6000528660002060005b85811015611d1f5781548b8201860152908301908801611d04565b8a0184019650505b505050508515156040860152509150610cf89050565b600060018201611d5d57634e487b7160e01b600052601160045260246000fd5b5060010190565b601f8211156106f957600081815260208120601f850160051c81016020861015611d8b5750805b601f850160051c820191505b8181101561137d57828155600101611d97565b815167ffffffffffffffff811115611dc457611dc4611a52565b611dd881611dd28454611c3b565b84611d64565b602080601f831160018114611e0d5760008415611df55750858301515b600019600386901b1c1916600185901b17855561137d565b600085815260208120601f198616915b82811015611e3c57888601518255948401946001909101908401611e1d565b5085821015611e5a5787850151600019600388901b60f8161c191681555b5050505050600190811b01905550565b8381526001600160a01b03831660208201526060604082018190526000906110b1908301846118a5565b838152606060208201526000611ead60608301856118a5565b90508215156040830152949350505050565b60008351611ed1818460208801611881565b835190830190611ee5818360208801611881565b01949350505050565b6001600160a01b0385811682528416602082015260408101839052608060608201819052600090611f21908301846118a5565b9695505050505050565b600060208284031215611f3d57600080fd5b8151610d6e8161184e56fed958c342db5f9142a8ee2fde2816085bf65f977c797e397d444d622b6aa9f2b5a2646970667358221220d40f1ba36089053bf39ed9dd6b64a8038954d98df7df7dd03400cbe8d60e76dc64736f6c63430008140033",
  "linkReferences": {},
  "deployedLinkReferences": {}
}