{
  "_format": "hh-sol-artifact-1",
  "contractName": "Sender",
  "sourceName": "contracts/sender.sol",
  "abi": [
    {
      "inputs": [
        {
          "internalType": "address payable",
          "name": "_receiver",
          "type": "address"
        }
      ],
      "stateMutability": "nonpayable",
      "type": "constructor"
    },
    {
      "inputs": [],
      "name": "getBalance",
      "outputs": [
        {
          "internalType": "uint256",
          "name": "",
          "type": "uint256"
        }
      ],
      "stateMutability": "view",
      "type": "function"
    },
    {
      "inputs": [],
      "name": "receiver",
      "outputs": [
        {
          "internalType": "address payable",
          "name": "",
          "type": "address"
        }
      ],
      "stateMutability": "view",
      "type": "function"
    },
    {
      "inputs": [],
      "name": "sendEther",
      "outputs": [],
      "stateMutability": "payable",
      "type": "function"
    }
  ],
  "bytecode": "0x608060405234801561001057600080fd5b506040516103cb3803806103cb833981810160405281019061003291906100db565b806000806101000a81548173ffffffffffffffffffffffffffffffffffffffff021916908373ffffffffffffffffffffffffffffffffffffffff16021790555050610108565b600080fd5b600073ffffffffffffffffffffffffffffffffffffffff82169050919050565b60006100a88261007d565b9050919050565b6100b88161009d565b81146100c357600080fd5b50565b6000815190506100d5816100af565b92915050565b6000602082840312156100f1576100f0610078565b5b60006100ff848285016100c6565b91505092915050565b6102b4806101176000396000f3fe6080604052600436106100345760003560e01c80630e29df221461003957806312065fe014610043578063f7260d3e1461006e575b600080fd5b610041610099565b005b34801561004f57600080fd5b50610058610145565b604051610065919061018a565b60405180910390f35b34801561007a57600080fd5b5061008361014d565b60405161009091906101e6565b60405180910390f35b600034116100dc576040517f08c379a00000000000000000000000000000000000000000000000000000000081526004016100d39061025e565b60405180910390fd5b60008054906101000a900473ffffffffffffffffffffffffffffffffffffffff1673ffffffffffffffffffffffffffffffffffffffff166108fc349081150290604051600060405180830381858888f19350505050158015610142573d6000803e3d6000fd5b50565b600047905090565b60008054906101000a900473ffffffffffffffffffffffffffffffffffffffff1681565b6000819050919050565b61018481610171565b82525050565b600060208201905061019f600083018461017b565b92915050565b600073ffffffffffffffffffffffffffffffffffffffff82169050919050565b60006101d0826101a5565b9050919050565b6101e0816101c5565b82525050565b60006020820190506101fb60008301846101d7565b92915050565b600082825260208201905092915050565b7f4d7573742073656e6420736f6d65204554480000000000000000000000000000600082015250565b6000610248601283610201565b915061025382610212565b602082019050919050565b600060208201905081810360008301526102778161023b565b905091905056fea2646970667358221220295446f3078822ef3b9e6a6058943c6d3a9d557434cb801cb8a2425b5aba1eb164736f6c63430008120033",
  "linkReferences": {},
  "deployedLinkReferences": {}
}